:020000040000FA
:02000000E128F5
:08000800F000030EF1000A08EC
:10001000F2008A01831203130B1D7728063081003A
:100020000B11D30803193828D40A1F305406031DB6
:100030002A28D4015308013A031924285308023A04
:100040000319262804302728013027280230D0063B
:1000500050088600CF1838280130CD077D304D027A
:10006000031C3828CD00CE0A08304E060319CF14E1
:100070003C30CB077D304B02031C7728CB00CC0AE9
:100080003C304C06031D7728CC01AC0A3C302C06D2
:10009000031D5228AC01AB0A18302B06031D522851
:1000A000AB01D2014F1452185F282D082B06031DF7
:1000B0005F2830082C06031D5F2851145214D218F3
:1000C0006B282E082B06031D6B2831082C06031DF8
:1000D0006B28D114D214521977282F082B06031D30
:1000E000772832082C06031D7728511552157208FF
:1000F0008A00710E8300F00E700E090052188A28D3
:100100002D082B06031D8A2830082C06031D8A287B
:1001100051145214D21896282E082B06031D962827
:1001200031082C06031D9628D114D2145219080048
:100130002F082B06031D080032082C06031D08009B
:100140005115521508005010D01050115308013AA3
:10015000031950145308023A0319D0145308033AF0
:10016000031950155008860008005010D010501187
:10017000500886000800D015500886000800D011ED
:100180005008860008005308013A0319CC28530888
:10019000023A0319CE28D0280C30D1280930D128B2
:1001A0000630BF00D01550088600DB20D011500863
:1001B0008600DB2008003F08C000F022C00BDD28CD
:1001C0000800831606309F008801F03086001C303E
:1001D00087007F3081008312D00186018701FF30C4
:1001E00088001C2300303E233C230B303E23083084
:1001F000FE22BB017B223408AB003508AC00013085
:10020000BB007B222C303B078400340880002F3059
:100210003B07840035088000BB0A04303B06031D01
:100220000129D101D201D301D401D501CF01CB01E4
:10023000CC01CD01CE017E203D21D421D308031D68
:10024000232950216521D308031D2F29D421D30848
:10025000031D23295421031C232967212329C3209B
:10026000CF1C342913222329FD21031C2329CF1855
:100270003B2911222329132223298B138B120B11C3
:100280008316031304308100831206308100CB01F2
:10029000CC01CD01CE01CF010B118B168B170800BD
:1002A0008B134F108B1708008B1303104F1C5A2908
:1002B0004F1003148B1708008B132B08D7002C0842
:1002C000D8005208D9008B170800362367295C2113
:1002D0007C213A235708A9005808AA0058233C2338
:1002E0004F303E235C08303E1A2320301A235A0830
:1002F000A9005B08AA00582BDC01591886292D0893
:10030000DD003008DE000130DF00B021D9188F2970
:100310002E08DD003108DE000230DF00B02159195F
:1003200098292F08DD003208DE000330DF00B021FD
:10033000DC08031D08002D08DD003008DE00013058
:10034000DF00BD212E08DD003108DE000230DF00B5
:10035000BD212F08DD003208DE000330DF00BD299B
:1003600057085D02031C08005D085706031DBD29E0
:1003700058085E02031C0800BD29DC080319CD29BA
:100380005A085D02031CCD295D085A06031D0800AA
:100390005B085E02031CCD2908005D08DA005E08D8
:1003A000DB005F08DC0008008B13D308031DF52970
:1003B0005118DF29D118E3295119E729F5295110DE
:1003C0000130D300EA29D1100230D300EA295111BB
:1003D0000330D300D401D501CD01CE01CF10A3202D
:1003E000BB20061A55148B17F7298B1708003623E4
:1003F00053303E235308303E1A2B03105518082A59
:10040000061E08001430F522061E080055140800C8
:10041000061E0B2A08001430F522061A08000314E1
:1004200008006230142A6D30D6008B13D301D4013A
:10043000D501CD01CE01CF10B520BF208B173623BB
:1004400056083E230830FE22D421D308031D08009D
:1004500050216529FE30C100C2015322F022070855
:100460001C391C3A031D3D2A0314C10DC20A043075
:100470004206031D2D2A5B22FF34C3000310C30C68
:100480000310C30CC4014318492A0310C30CC40A47
:10049000432A0310420DC6000310C60D4408C607C8
:1004A0005B2246080800410EF039C90008080F39E0
:1004B0004904880008000F30C100532A2A22C500D1
:1004C000450A03195E2A1430F5222A224506031D27
:1004D0005E2A6430CA002A22C700470A0319742A18
:1004E0001430F522CA0B6B2A1430F52207308A002B
:1004F000450800270800BD22C4225E22BC002A3025
:100500003C0603199B2A23303C0603199E2A3030EF
:100510003C02031C7D2A3A303C0203187D2A043039
:100520003A0203187D2A36303A0784003C088000DE
:10053000BA0AD3227D2ABD22D3227D2A04303A066C
:10054000031DB72A3608BD003708BE00DF22B400FD
:100550003808BD003908BE00DF22B500183034026B
:100560000318B72A3C3035020318B72A080036238F
:1005700041303E230430FE227B2A5F30B600B700B4
:10058000B800B900BA0108003623BB08031DCB2A06
:1005900018303E23D02A29303E233B08303E1A2310
:1005A000D32237303E2BC030182336081A233708A1
:1005B0001A233A301A2338081A2339081A2B3030F4
:1005C000BD02BE023D08BF000310BF0D3F08C000C2
:1005D0000310C00D0310C00D40083F073E07080080
:1005E0000F30A200A20BF22A0800A000F930A100EF
:1005F0000000A10BF82AA00BF62A0800A300FA308D
:10060000F522A30BFF2A0800C800480E0F39C800C6
:100610000808F039480488000710241807148714C4
:10062000000087100800A5000423250E0423F02AEB
:100630002410132B2414132BA4011E30F522303068
:1006400004230530F522303004230130F522303008
:1006500004230130F522203004230130F522283014
:1006600018230C30182306301823362B013018239A
:100670000230F52A8030182BC030182BA600073026
:100680008A0026081127003A031908001A23A60A2F
:100690003F2BA700A8010A302702031C522BA700FA
:1006A000A80A4B2B303028071A23303027071A2B83
:0C06B000290849233A301A232A08492B54
:100E00008207313432343334413434343534363477
:100E1000423437343834393443342A343034233488
:100E200044348207573465346C3463346F346D3422
:100E30006534203474346F3400344D346534643494
:100E40002034523465346D3469346E34643465341E
:100E5000723400345334653474342034433475347C
:100E60007234723465346E347434203454346934DA
:100E70006D346534003453346534743420344D3467
:100E8000653464346934633469346E3465342034D1
:100E90000034203423344F344B3420342A34433448
:100EA0004C345234003449346E34763461346C340A
:100EB000693464342034543469346D3465342134F5
:100EC00000344D34653464340034543461346B344C
:100ED000653420344D3465346434693463346934A2
:100EE0006E3465342034003444346F3473346534E4
:100EF0002034543461346B3465346E3400344434FB
:100F00006F347334653420344D346934733473343E
:060F100065346434003476
:02400E00313F40
:00000001FF
